{
  "contractName": "BridgeBase",
  "abi": [
    {
      "inputs": [
        {
          "internalType": "address",
          "name": "_token",
          "type": "address"
        }
      ],
      "stateMutability": "nonpayable",
      "type": "constructor"
    },
    {
      "anonymous": false,
      "inputs": [
        {
          "indexed": false,
          "internalType": "address",
          "name": "sender",
          "type": "address"
        },
        {
          "indexed": false,
          "internalType": "address",
          "name": "receiver",
          "type": "address"
        },
        {
          "indexed": false,
          "internalType": "uint256",
          "name": "amount",
          "type": "uint256"
        },
        {
          "indexed": false,
          "internalType": "address",
          "name": "signer",
          "type": "address"
        },
        {
          "indexed": false,
          "internalType": "bytes",
          "name": "signature",
          "type": "bytes"
        }
      ],
      "name": "Confirmed",
      "type": "event"
    },
    {
      "anonymous": false,
      "inputs": [
        {
          "indexed": false,
          "internalType": "address",
          "name": "sender",
          "type": "address"
        },
        {
          "indexed": false,
          "internalType": "address",
          "name": "receiver",
          "type": "address"
        },
        {
          "indexed": false,
          "internalType": "uint256",
          "name": "amount",
          "type": "uint256"
        },
        {
          "indexed": false,
          "internalType": "address",
          "name": "proposer",
          "type": "address"
        },
        {
          "indexed": false,
          "internalType": "bytes",
          "name": "signature",
          "type": "bytes"
        }
      ],
      "name": "Proposed",
      "type": "event"
    },
    {
      "anonymous": false,
      "inputs": [
        {
          "indexed": false,
          "internalType": "address",
          "name": "from",
          "type": "address"
        },
        {
          "indexed": false,
          "internalType": "address",
          "name": "to",
          "type": "address"
        },
        {
          "indexed": false,
          "internalType": "uint256",
          "name": "amount",
          "type": "uint256"
        },
        {
          "indexed": true,
          "internalType": "enum BridgeBase.Step",
          "name": "step",
          "type": "uint8"
        }
      ],
      "name": "Transfer",
      "type": "event"
    },
    {
      "inputs": [
        {
          "internalType": "address",
          "name": "",
          "type": "address"
        },
        {
          "internalType": "uint256",
          "name": "",
          "type": "uint256"
        }
      ],
      "name": "processedNonces",
      "outputs": [
        {
          "internalType": "bool",
          "name": "",
          "type": "bool"
        }
      ],
      "stateMutability": "view",
      "type": "function"
    },
    {
      "inputs": [],
      "name": "token",
      "outputs": [
        {
          "internalType": "contract IToken",
          "name": "",
          "type": "address"
        }
      ],
      "stateMutability": "view",
      "type": "function"
    },
    {
      "inputs": [
        {
          "internalType": "bytes32",
          "name": "",
          "type": "bytes32"
        }
      ],
      "name": "transactions",
      "outputs": [
        {
          "internalType": "address",
          "name": "sender",
          "type": "address"
        },
        {
          "internalType": "address",
          "name": "receiver",
          "type": "address"
        },
        {
          "internalType": "uint256",
          "name": "amount",
          "type": "uint256"
        }
      ],
      "stateMutability": "view",
      "type": "function"
    },
    {
      "inputs": [
        {
          "internalType": "address",
          "name": "sender",
          "type": "address"
        },
        {
          "internalType": "address",
          "name": "receiver",
          "type": "address"
        },
        {
          "internalType": "uint256",
          "name": "amount",
          "type": "uint256"
        },
        {
          "internalType": "address[]",
          "name": "potentialSigners",
          "type": "address[]"
        },
        {
          "internalType": "address",
          "name": "proposer",
          "type": "address"
        },
        {
          "internalType": "bytes",
          "name": "signature",
          "type": "bytes"
        }
      ],
      "name": "proposeTransaction",
      "outputs": [],
      "stateMutability": "nonpayable",
      "type": "function"
    },
    {
      "inputs": [
        {
          "internalType": "address",
          "name": "sender",
          "type": "address"
        },
        {
          "internalType": "address",
          "name": "receiver",
          "type": "address"
        },
        {
          "internalType": "uint256",
          "name": "amount",
          "type": "uint256"
        },
        {
          "internalType": "address",
          "name": "signer",
          "type": "address"
        },
        {
          "internalType": "bytes",
          "name": "signature",
          "type": "bytes"
        }
      ],
      "name": "confirmTransaction",
      "outputs": [],
      "stateMutability": "nonpayable",
      "type": "function"
    },
    {
      "inputs": [
        {
          "internalType": "address",
          "name": "from",
          "type": "address"
        },
        {
          "internalType": "address",
          "name": "to",
          "type": "address"
        },
        {
          "internalType": "uint256",
          "name": "amount",
          "type": "uint256"
        }
      ],
      "name": "mint",
      "outputs": [],
      "stateMutability": "nonpayable",
      "type": "function"
    }
  ],
  "bytecode": "0x60806040523480156200001157600080fd5b5060405162001d8138038062001d818339818101604052810190620000379190620000e8565b806000806101000a81548173ffffffffffffffffffffffffffffffffffffffff021916908373ffffffffffffffffffffffffffffffffffffffff160217905550506200011a565b600080fd5b600073ffffffffffffffffffffffffffffffffffffffff82169050919050565b6000620000b08262000083565b9050919050565b620000c281620000a3565b8114620000ce57600080fd5b50565b600081519050620000e281620000b7565b92915050565b6000602082840312156200010157620001006200007e565b5b60006200011184828501620000d1565b91505092915050565b611c57806200012a6000396000f3fe608060405234801561001057600080fd5b50600436106100625760003560e01c8063642f2eaf146100675780637cc7024014610099578063921d990d146100c957806394d6660f146100e5578063c6c3bbe614610101578063fc0c546a1461011d575b600080fd5b610081600480360381019061007c9190610ef5565b61013b565b60405161009093929190610f7c565b60405180910390f35b6100b360048036038101906100ae919061100b565b6101a5565b6040516100c09190611066565b60405180910390f35b6100e360048036038101906100de9190611235565b6101d4565b005b6100ff60048036038101906100fa91906113b5565b610550565b005b61011b6004803603810190610116919061144c565b610ab0565b005b610125610b90565b60405161013291906114fe565b60405180910390f35b60026020528060005260406000206000915090508060020160009054906101000a900473ffffffffffffffffffffffffffffffffffffffff16908060030160009054906101000a900473ffffffffffffffffffffffffffffffffffffffff16908060040154905083565b60016020528160005260406000206020528060005260406000206000915091509054906101000a900460ff1681565b60006102098888886040516020016101ee93929190611582565b60405160208183030381529060405280519060200120610bb4565b90508373ffffffffffffffffffffffffffffffffffffffff166102708285858080601f016020809104026020016040519081016040528093929190818152602001838380828437600081840152601f19601f82011690508083019250505050505050610be4565b73ffffffffffffffffffffffffffffffffffffffff16146102c6576040517f08c379a00000000000000000000000000000000000000000000000000000000081526004016102bd90611642565b60405180910390fd5b600385511461030a576040517f08c379a0000000000000000000000000000000000000000000000000000000008152600401610301906116d4565b60405180910390fd5b6040518060a00160405280868152602001600067ffffffffffffffff81111561033657610335611097565b5b6040519080825280602002602001820160405280156103645781602001602082028036833780820191505090505b5081526020018973ffffffffffffffffffffffffffffffffffffffff1681526020018873ffffffffffffffffffffffffffffffffffffffff168152602001878152506002600083815260200190815260200160002060008201518160000190805190602001906103d5929190610e04565b5060208201518160010190805190602001906103f2929190610e04565b5060408201518160020160006101000a81548173ffffffffffffffffffffffffffffffffffffffff021916908373ffffffffffffffffffffffffffffffffffffffff16021790555060608201518160030160006101000a81548173ffffffffffffffffffffffffffffffffffffffff021916908373ffffffffffffffffffffffffffffffffffffffff1602179055506080820151816004015590505060026000828152602001908152602001600020600101339080600181540180825580915050600190039060005260206000200160009091909190916101000a81548173ffffffffffffffffffffffffffffffffffffffff021916908373ffffffffffffffffffffffffffffffffffffffff1602179055507f9851ae10629a54f8445b4c22a541dfde289b7e8a20da838cdeed6473e551c9cb88888887878760405161053e96959493929190611732565b60405180910390a15050505050505050565b600061058586868660405160200161056a93929190611582565b60405160208183030381529060405280519060200120610bb4565b90508273ffffffffffffffffffffffffffffffffffffffff166105a88284610be4565b73ffffffffffffffffffffffffffffffffffffffff16146105fe576040517f08c379a00000000000000000000000000000000000000000000000000000000081526004016105f590611800565b60405180910390fd5b6106a26002600083815260200190815260200160002060000180548060200260200160405190810160405280929190818152602001828054801561069757602002820191906000526020600020905b8160009054906101000a900473ffffffffffffffffffffffffffffffffffffffff1673ffffffffffffffffffffffffffffffffffffffff168152602001906001019080831161064d575b505050505084610c59565b6106e1576040517f08c379a00000000000000000000000000000000000000000000000000000000081526004016106d890611892565b60405180910390fd5b6107856002600083815260200190815260200160002060010180548060200260200160405190810160405280929190818152602001828054801561077a57602002820191906000526020600020905b8160009054906101000a900473ffffffffffffffffffffffffffffffffffffffff1673ffffffffffffffffffffffffffffffffffffffff1681526020019060010190808311610730575b505050505084610c59565b156107c5576040517f08c379a00000000000000000000000000000000000000000000000000000000081526004016107bc90611924565b60405180910390fd5b60026000828152602001908152602001600020600101839080600181540180825580915050600190039060005260206000200160009091909190916101000a81548173ffffffffffffffffffffffffffffffffffffffff021916908373ffffffffffffffffffffffffffffffffffffffff1602179055507fc7455a18b571199d4f38c3417b0cfcd2f170aa3f781b5d2da0f8c4361e41af8a86868686866040516108739594939291906119bb565b60405180910390a160028060008381526020019081526020016000206001018054905010610aa8576000600260008381526020019081526020016000206040518060a00160405290816000820180548060200260200160405190810160405280929190818152602001828054801561094057602002820191906000526020600020905b8160009054906101000a900473ffffffffffffffffffffffffffffffffffffffff1673ffffffffffffffffffffffffffffffffffffffff16815260200190600101908083116108f6575b50505050508152602001600182018054806020026020016040519081016040528092919081815260200182805480156109ce57602002820191906000526020600020905b8160009054906101000a900473ffffffffffffffffffffffffffffffffffffffff1673ffffffffffffffffffffffffffffffffffffffff1681526020019060010190808311610984575b505050505081526020016002820160009054906101000a900473ffffffffffffffffffffffffffffffffffffffff1673ffffffffffffffffffffffffffffffffffffffff1673ffffffffffffffffffffffffffffffffffffffff1681526020016003820160009054906101000a900473ffffffffffffffffffffffffffffffffffffffff1673ffffffffffffffffffffffffffffffffffffffff1673ffffffffffffffffffffffffffffffffffffffff1681526020016004820154815250509050610aa6816040015182606001518360800151610ce0565b505b505050505050565b60008054906101000a900473ffffffffffffffffffffffffffffffffffffffff1673ffffffffffffffffffffffffffffffffffffffff166340c10f1983836040518363ffffffff1660e01b8152600401610b0b929190611a15565b600060405180830381600087803b158015610b2557600080fd5b505af1158015610b39573d6000803e3d6000fd5b50505050600180811115610b5057610b4f611a3e565b5b7fac60cf27dc4f1617415f958a9454e62dfc38586b526185b4d97ebc6f02522b16848484604051610b8393929190610f7c565b60405180910390a2505050565b60008054906101000a900473ffffffffffffffffffffffffffffffffffffffff1681565b600081604051602001610bc79190611ae5565b604051602081830303815290604052805190602001209050919050565b600080600080610bf385610dc1565b80935081945082955050505060018684848460405160008152602001604052604051610c229493929190611b36565b6020604051602081039080840390855afa158015610c44573d6000803e3d6000fd5b50505060206040510351935050505092915050565b600080600090505b8351811015610cd4578273ffffffffffffffffffffffffffffffffffffffff16848281518110610c9457610c93611b7b565b5b602002602001015173ffffffffffffffffffffffffffffffffffffffff1603610cc1576001915050610cda565b8080610ccc90611bd9565b915050610c61565b50600090505b92915050565b60008054906101000a900473ffffffffffffffffffffffffffffffffffffffff1673ffffffffffffffffffffffffffffffffffffffff16639dc29fac84836040518363ffffffff1660e01b8152600401610d3b929190611a15565b600060405180830381600087803b158015610d5557600080fd5b505af1158015610d69573d6000803e3d6000fd5b5050505060006001811115610d8157610d80611a3e565b5b7fac60cf27dc4f1617415f958a9454e62dfc38586b526185b4d97ebc6f02522b16848484604051610db493929190610f7c565b60405180910390a2505050565b60008060006041845114610dd457600080fd5b60008060006020870151925060408701519150606087015160001a90508083839550955095505050509193909250565b828054828255906000526020600020908101928215610e7d579160200282015b82811115610e7c5782518260006101000a81548173ffffffffffffffffffffffffffffffffffffffff021916908373ffffffffffffffffffffffffffffffffffffffff16021790555091602001919060010190610e24565b5b509050610e8a9190610e8e565b5090565b5b80821115610ea7576000816000905550600101610e8f565b5090565b6000604051905090565b600080fd5b600080fd5b6000819050919050565b610ed281610ebf565b8114610edd57600080fd5b50565b600081359050610eef81610ec9565b92915050565b600060208284031215610f0b57610f0a610eb5565b5b6000610f1984828501610ee0565b91505092915050565b600073ffffffffffffffffffffffffffffffffffffffff82169050919050565b6000610f4d82610f22565b9050919050565b610f5d81610f42565b82525050565b6000819050919050565b610f7681610f63565b82525050565b6000606082019050610f916000830186610f54565b610f9e6020830185610f54565b610fab6040830184610f6d565b949350505050565b610fbc81610f42565b8114610fc757600080fd5b50565b600081359050610fd981610fb3565b92915050565b610fe881610f63565b8114610ff357600080fd5b50565b60008135905061100581610fdf565b92915050565b6000806040838503121561102257611021610eb5565b5b600061103085828601610fca565b925050602061104185828601610ff6565b9150509250929050565b60008115159050919050565b6110608161104b565b82525050565b600060208201905061107b6000830184611057565b92915050565b600080fd5b6000601f19601f8301169050919050565b7f4e487b7100000000000000000000000000000000000000000000000000000000600052604160045260246000fd5b6110cf82611086565b810181811067ffffffffffffffff821117156110ee576110ed611097565b5b80604052505050565b6000611101610eab565b905061110d82826110c6565b919050565b600067ffffffffffffffff82111561112d5761112c611097565b5b602082029050602081019050919050565b600080fd5b600061115661115184611112565b6110f7565b905080838252602082019050602084028301858111156111795761117861113e565b5b835b818110156111a2578061118e8882610fca565b84526020840193505060208101905061117b565b5050509392505050565b600082601f8301126111c1576111c0611081565b5b81356111d1848260208601611143565b91505092915050565b600080fd5b60008083601f8401126111f5576111f4611081565b5b8235905067ffffffffffffffff811115611212576112116111da565b5b60208301915083600182028301111561122e5761122d61113e565b5b9250929050565b600080600080600080600060c0888a03121561125457611253610eb5565b5b60006112628a828b01610fca565b97505060206112738a828b01610fca565b96505060406112848a828b01610ff6565b955050606088013567ffffffffffffffff8111156112a5576112a4610eba565b5b6112b18a828b016111ac565b94505060806112c28a828b01610fca565b93505060a088013567ffffffffffffffff8111156112e3576112e2610eba565b5b6112ef8a828b016111df565b925092505092959891949750929550565b600080fd5b600067ffffffffffffffff8211156113205761131f611097565b5b61132982611086565b9050602081019050919050565b82818337600083830152505050565b600061135861135384611305565b6110f7565b90508281526020810184848401111561137457611373611300565b5b61137f848285611336565b509392505050565b600082601f83011261139c5761139b611081565b5b81356113ac848260208601611345565b91505092915050565b600080600080600060a086880312156113d1576113d0610eb5565b5b60006113df88828901610fca565b95505060206113f088828901610fca565b945050604061140188828901610ff6565b935050606061141288828901610fca565b925050608086013567ffffffffffffffff81111561143357611432610eba565b5b61143f88828901611387565b9150509295509295909350565b60008060006060848603121561146557611464610eb5565b5b600061147386828701610fca565b935050602061148486828701610fca565b925050604061149586828701610ff6565b9150509250925092565b6000819050919050565b60006114c46114bf6114ba84610f22565b61149f565b610f22565b9050919050565b60006114d6826114a9565b9050919050565b60006114e8826114cb565b9050919050565b6114f8816114dd565b82525050565b600060208201905061151360008301846114ef565b92915050565b60008160601b9050919050565b600061153182611519565b9050919050565b600061154382611526565b9050919050565b61155b61155682610f42565b611538565b82525050565b6000819050919050565b61157c61157782610f63565b611561565b82525050565b600061158e828661154a565b60148201915061159e828561154a565b6014820191506115ae828461156b565b602082019150819050949350505050565b600082825260208201905092915050565b7f5369676e6174757265204572726f723a204e6f74205369676e6564206279207460008201527f68652050726f706f736572000000000000000000000000000000000000000000602082015250565b600061162c602b836115bf565b9150611637826115d0565b604082019050919050565b6000602082019050818103600083015261165b8161161f565b9050919050565b7f546872656520706f74656e7469616c207369676e65727320617265207265717560008201527f6972656400000000000000000000000000000000000000000000000000000000602082015250565b60006116be6024836115bf565b91506116c982611662565b604082019050919050565b600060208201905081810360008301526116ed816116b1565b9050919050565b600082825260208201905092915050565b600061171183856116f4565b935061171e838584611336565b61172783611086565b840190509392505050565b600060a0820190506117476000830189610f54565b6117546020830188610f54565b6117616040830187610f6d565b61176e6060830186610f54565b8181036080830152611781818486611705565b9050979650505050505050565b7f5369676e6174757265204572726f723a204e6f74205369676e6564206279207460008201527f68652053656e6465720000000000000000000000000000000000000000000000602082015250565b60006117ea6029836115bf565b91506117f58261178e565b604082019050919050565b60006020820190508181036000830152611819816117dd565b9050919050565b7f50726f76696465642041646472657373206973206e6f74206120706f74656e7460008201527f69616c207369676e657220666f722074686973207472616e73616374696f6e00602082015250565b600061187c603f836115bf565b915061188782611820565b604082019050919050565b600060208201905081810360008301526118ab8161186f565b9050919050565b7f53656e6465722068617320616c7265616479207369676e65642074686973207460008201527f72616e73616374696f6e00000000000000000000000000000000000000000000602082015250565b600061190e602a836115bf565b9150611919826118b2565b604082019050919050565b6000602082019050818103600083015261193d81611901565b9050919050565b600081519050919050565b60005b8381101561196d578082015181840152602081019050611952565b8381111561197c576000848401525b50505050565b600061198d82611944565b61199781856116f4565b93506119a781856020860161194f565b6119b081611086565b840191505092915050565b600060a0820190506119d06000830188610f54565b6119dd6020830187610f54565b6119ea6040830186610f6d565b6119f76060830185610f54565b8181036080830152611a098184611982565b90509695505050505050565b6000604082019050611a2a6000830185610f54565b611a376020830184610f6d565b9392505050565b7f4e487b7100000000000000000000000000000000000000000000000000000000600052602160045260246000fd5b600081905092915050565b7f19457468657265756d205369676e6564204d6573736167653a0a333200000000600082015250565b6000611aae601c83611a6d565b9150611ab982611a78565b601c82019050919050565b6000819050919050565b611adf611ada82610ebf565b611ac4565b82525050565b6000611af082611aa1565b9150611afc8284611ace565b60208201915081905092915050565b611b1481610ebf565b82525050565b600060ff82169050919050565b611b3081611b1a565b82525050565b6000608082019050611b4b6000830187611b0b565b611b586020830186611b27565b611b656040830185611b0b565b611b726060830184611b0b565b95945050505050565b7f4e487b7100000000000000000000000000000000000000000000000000000000600052603260045260246000fd5b7f4e487b7100000000000000000000000000000000000000000000000000000000600052601160045260246000fd5b6000611be482610f63565b91507fffffffffffffffffffffffffffffffffffffffffffffffffffffffffffffffff8203611c1657611c15611baa565b5b60018201905091905056fea2646970667358221220a84eaec6b701502cfe23d301137e1bffd2ffb934a5b8c982e748b1988d64e73764736f6c634300080d0033",
  "immutableReferences": {},
  "source": "pragma solidity ^0.8.0;\n\nimport \"@openzeppelin/contracts/token/ERC20/IERC20.sol\";\nimport \"./IToken.sol\";\n\ncontract BridgeBase {\n    IToken public token;\n    mapping(address => mapping(uint256 => bool)) public processedNonces;\n\n    // Handling multisig\n    mapping(bytes32 => Transaction) public transactions;\n    struct Transaction {\n        address[] potentialSigners;\n        address[] signers;\n        address sender;\n        address receiver;\n        uint amount;\n    }\n\n    enum Step {\n        Burn,\n        Mint\n    }\n    event Proposed(\n        address sender,\n        address receiver,\n        uint amount,\n        address proposer,\n        bytes signature\n    );\n    event Confirmed(\n        address sender,\n        address receiver,\n        uint amount,\n        address signer,\n        bytes signature\n    );\n    event Transfer(address from, address to, uint256 amount, Step indexed step);\n\n    constructor(address _token) {\n        token = IToken(_token);\n    }\n\n    // Function to propose a transaction\n    function proposeTransaction(\n        address sender,\n        address receiver,\n        uint amount,\n        address[] memory potentialSigners,\n        address proposer,\n        bytes calldata signature\n    ) public {\n        // check if the message is signed by the user\n        bytes32 message = prefixed(\n            keccak256(abi.encodePacked(sender, receiver, amount))\n        );\n        require(\n            recoverSigner(message, signature) == proposer,\n            \"Signature Error: Not Signed by the Proposer\"\n        );\n        // Check if there are three potential signers\n        require(\n            potentialSigners.length == 3,\n            \"Three potential signers are required\"\n        );\n\n        // Store the transaction details in the mapping\n\n        transactions[message] = Transaction(\n            potentialSigners,\n            new address[](0),\n            sender,\n            receiver,\n            amount\n        );\n        // adding proposer as the signer\n        transactions[message].signers.push(msg.sender);\n\n        // emit the event that the transaction has been proposed\n\n        emit Proposed(sender, receiver, amount, proposer, signature);\n    }\n\n    // Internal function to check if an address exists in an array\n    function addressExists(\n        address[] memory _arr,\n        address _address\n    ) internal view returns (bool) {\n        for (uint256 i = 0; i < _arr.length; i++) {\n            if (_arr[i] == _address) {\n                return true;\n            }\n        }\n        return false;\n    }\n\n    // Function to confirm a transaction\n    function confirmTransaction(\n        address sender,\n        address receiver,\n        uint amount,\n        address signer,\n        bytes memory signature\n    ) public {\n        // Checking validity of signature\n        // check if the message is signed by the user\n        bytes32 message = prefixed(\n            keccak256(abi.encodePacked(sender, receiver, amount))\n        );\n\n        require(\n            recoverSigner(message, signature) == signer,\n            \"Signature Error: Not Signed by the Sender\"\n        );\n\n        // If the caller is valid potential Signer\n        // Someone can confirm the transaction only if they are one of the potential signers\n        require(\n            addressExists(transactions[message].potentialSigners, signer),\n            \"Provided Address is not a potential signer for this transaction\"\n        );\n        // The transaction should not be repeatedly signed by same person\n        require(\n            !addressExists(transactions[message].signers, signer),\n            \"Sender has already signed this transaction\"\n        );\n\n        // adding proposer as the signer\n        transactions[message].signers.push(signer);\n        // if 2 of 3 people have signed the transaction, execute it\n        emit Confirmed(sender, receiver, amount, signer, signature);\n        if (transactions[message].signers.length >= 2) {\n            Transaction memory trx = transactions[message];\n            burn(trx.sender, trx.receiver, trx.amount);\n        }\n    }\n\n    function burn(address from, address to, uint256 amount) internal {\n        token.burn(from, amount);\n        emit Transfer(from, to, amount, Step.Burn);\n    }\n\n    function mint(address from, address to, uint256 amount) external {\n        token.mint(to, amount);\n        //address from, address to, uint256 amount, Step indexed step\n        emit Transfer(from, to, amount, Step.Mint);\n    }\n\n    function prefixed(bytes32 hash) internal pure returns (bytes32) {\n        return\n            keccak256(\n                abi.encodePacked(\"\\x19Ethereum Signed Message:\\n32\", hash)\n            );\n    }\n\n    function recoverSigner(\n        bytes32 message,\n        bytes memory sig\n    ) internal pure returns (address) {\n        uint8 v;\n        bytes32 r;\n        bytes32 s;\n\n        (v, r, s) = splitSignature(sig);\n\n        return ecrecover(message, v, r, s);\n    }\n\n    function splitSignature(\n        bytes memory sig\n    ) internal pure returns (uint8, bytes32, bytes32) {\n        require(sig.length == 65);\n\n        bytes32 r;\n        bytes32 s;\n        uint8 v;\n\n        assembly {\n            // first 32 bytes, after the length prefix\n            r := mload(add(sig, 32))\n            // second 32 bytes\n            s := mload(add(sig, 64))\n            // final byte (first byte of the next 32 bytes)\n            v := byte(0, mload(add(sig, 96)))\n        }\n\n        return (v, r, s);\n    }\n}\n",
  "sourcePath": "D:\\DeFi\\MultiSig_Bridge_2\\contracts\\BridgeBase.sol",
  "compiler": {
    "name": "solc",
    "version": "0.8.13+commit.abaa5c0e.Emscripten.clang"
  },
  "schemaVersion": "3.4.11",
  "updatedAt": "2023-02-03T19:21:27.688Z",
  "devdoc": {
    "kind": "dev",
    "methods": {},
    "version": 1
  },
  "userdoc": {
    "kind": "user",
    "methods": {},
    "version": 1
  }
}